:020000040800F2
:10000000480400209D0100087F0F0008E90E000849
:100010007D0F0008090200080F150008000000000D
:100020000000000000000000000000002110000897
:100030000B02000800000000A10F000823100008B8
:10004000B7010008B7010008B7010008B7010008B0
:10005000B7010008B7010008B7010008B7010008A0
:10006000B7010008B7010008B7010008B701000890
:10007000B7010008B7010008B7010008B701000880
:10008000B7010008B7010008B7010008B701000870
:10009000B7010008B7010008B7010008B701000860
:1000A000B7010008B7010008B7010008B701000850
:1000B000B7010008B7010008B7010008B701000840
:1000C000B7010008B7010008B7010008B701000830
:1000D000B7010008B7010008B7010008B701000820
:1000E000B7010008B7010008B7010008B701000810
:1000F000B7010008B7010008B7010008B701000800
:10010000B7010008B7010008B7010008B7010008EF
:10011000B7010008B7010008B7010008B7010008DF
:10012000B7010008B7010008B7010008B7010008CF
:10013000B7010008B7010008B7010008B7010008BF
:10014000B7010008B7010008B7010008B7010008AF
:10015000B7010008B7010008B7010008B70100089F
:10016000B7010008B7010008B7010008B70100088F
:10017000B7010008B7010008B7010008000000003F
:10018000B7010008B7010008DFF80CD000F02AF82A
:100190000048004731150008480400200648804701
:1001A00006480047FEE7FEE7FEE7FEE7FEE7FEE75C
:1001B000FEE7FEE7FEE7FEE775100008890100088C
:1001C000D2B201E000F8012B491EFBD27047002299
:1001D000F6E710B513460A4604461946FFF7F0FF46
:1001E000204610BD064C074D06E0E06840F00103D4
:1001F00094E8070098471034AC42F6D3FFF7C8FFE5
:10020000BC150008DC150008FEE770472DE9F84F23
:10021000DFF898B100234FF0010C4FF0030A4FF0C4
:100220000F090BF1040EB9E00CFA03F4224070D070
:100230004D68022D01D0122D0ED1DD0800EB85088E
:10024000D8F820505E07F70E09FA07F6B5430E6995
:10025000BE402E43C8F8206007685E0091F8048015
:100260000AFA06F508F00308AF4308FA06F848EA68
:100270000708C0F800804F68012F05D0022F03D077
:10028000112F01D0122F13D1D0F80880CF6828EA9F
:100290000508B74047EA08078760D0F804800F795F
:1002A00028EA0408C7F300179F4047EA0807476099
:1002B000D1F804806FEA0807BF0706D1C76AA743D1
:1002C000C8F3C0049C403C43C462C468AC438D681E
:1002D000B5402543C5604C68E4005ED5344C256EBE
:1002E00045F001052566246E23F0030504F00104A2
:1002F0000094304C2E19B4689D072F0F09FA07F5AA
:10030000AC43B0F1904F05D02B4DA84204D101254C
:100310001CE042E0002519E0284DA84201D1022549
:1003200014E0274DA84201D103250FE0254DA84236
:1003300001D104250AE0244DA84201D1052505E09C
:10034000224DA84201D1062500E00725BD402543E6
:10035000B560DBF800405D464E689443F60300D577
:1003600014432C60DEF8004075464E689443B60393
:1003700000D514432C600D4D08352C684E6894430D
:10038000F60200D514432C60084D0C352C684E68DD
:100390009443B60200D514432C605B1C0A6832FA01
:1003A00003F57FF441AF00F013B8000000040140F2
:1003B000001002400000014000040048000800480E
:1003C000000C0048001000480014004800180048C5
:1003D00018BCBDE8E08F00000148006870470000CD
:1003E0000000002002480168491C016070470000BD
:1003F0000000002010B50024032000F059F8002070
:1004000000F008F808B1012401E000F01BF82046D4
:1004100010BD000070B5054609484FF47A710024FC
:100420000068B0FBF1F000F0A1FB08B1012404E08A
:1004300000222946501E00F01BF8204670BD000027
:1004400004000020094808B5016E41F00101016671
:10045000016E01F001010091816D41F080518165D3
:10046000806D00F08050009008BD00000010024038
:10047000F0B40E4B1B680C46C3F30223C3F107050F
:10048000042D00D90425191D072901D2002300E0FD
:10049000DB1E012606FA05F1491E214099409E40C7
:1004A000761E16403143F0BC00F06ABD0CED00E052
:1004B000064900F0070208684FF6FF03184040EABB
:1004C0000220034A10430860704700000CED00E072
:1004D0000000FA051649B0F5007F0868C0F3412016
:1004E00009D0022805D0086820F4C06040F480607C
:1004F0000860002070470128FBD0086820F4C06025
:1005000040F4007008600B483222006850430A4AE9
:10051000B0FBF2F0401C00E0401E4A69520501D5D4
:100520000028F9D148694005E3D503207047000051
:10053000007000400400002040420F0002480068A4
:1005400000F4C06070470000007000402DE9F047E3
:100550000F46050058D03F4E306800F00700B84203
:1005600009D2306820F0070038433060306800F06E
:100570000700B84248D12878374CC0072CD06868AB
:10058000032811D0022812D0216898B1490500290A
:100590003ADAA16821F003010143A160FFF71CFFD3
:1005A000804641F2883910E021688901EFE721682F
:1005B0008903ECE78907EAE7FFF70EFFA0EB0801E4
:1005C000494502D90320BDE8F087A068696800F0BA
:1005D0000C00B0EB810FEFD12878800705D5A0681B
:1005E000A96820F0F0000843A060306800F0070020
:1005F000B8420BD9306820F00700384330603068CB
:1006000000F00700B84201D00120DCE7287840075D
:1006100005D5A068E96820F4E0600843A060287868
:10062000000706D5A068296920F4605040EAC1009F
:10063000A06000F017F8A168084AC1F30311515CEB
:1006400001F01F01C84006490860BDE8F0470020DE
:10065000FFF7E0BE00200240001002407C150008B9
:100660000400002070B52549002318468A68CC682C
:1006700012F00C0204F00306214C4FEA640509D085
:100680000C2A05D0042A26D0082A00D1284670BD9D
:10069000012E10D10B681B0704D4D1F89430C3F39A
:1006A000032302E00B68C3F30313164E56F82330FE
:1006B0007AB10C2AEBD1C86800F00302C868C0F315
:1006C0000210401C022A08D0032A09D0B3FBF0F024
:1006D00008E0184670BD204670BDB4FBF0F001E0A4
:1006E000B5FBF0F0CA68C968C2F306225043C1F3F3
:1006F0004161491C4900B0FBF1F070BD001002409F
:100700000024F4008C1500082DE9F84305007CD086
:10071000FD4CA06800F00C06E06800F003072878A4
:10072000C00661D576B10C2E01D1012F0AD0A8697F
:100730000028206878D040F001002060FFF74CFED0
:10074000804659E02068800702D5A8690028DED0DD
:10075000286A2168090703D5216801F0F00104E047
:10076000D4F89410F02202EA1111884215D900F051
:1007700019FC002849D1206840F00800206020685A
:10078000296A20F0F000084320606068E96920F4DD
:100790007F4040EA0120606015E0206840F00800DA
:1007A00020602068296A20F0F0000843206060681B
:1007B000E96920F47F4040EA01206060286A00F087
:1007C000F1FB0028D6D1FFF74DFFA168CF4AC1F356
:1007D0000311515C01F01F01C840CD4908600020A1
:1007E000FFF718FE00287DD12FE000BFFFF7F4FDD2
:1007F000A0EB0800022876D820688007F6D520688C
:1008000040F008002060206801E0BBE00CE0296AAD
:1008100020F0F000084320606068E96920F47F4020
:1008200040EA0120606010E020F001002060FFF746
:10083000D3FD804606E000BFFFF7CEFDA0EB080029
:100840000228D8D820688007F6D42878C00740D07E
:10085000082E18D00C2E01D1032F14D06868B0F5E3
:10086000803F17D0B0F5A02F206817D020F480303B
:100870002060206820F4802020606868E0B1FFF7E5
:10088000ABFD804614E02068800322D5686800280C
:1008900078D01EE0206840F48030EDE740F48020FE
:1008A0002060F7E7FFF798FDA0EB08006428A2D8C6
:1008B00020688003F6D50CE0FFF78EFD804605E04A
:1008C000FFF78AFDA0EB0800642894D82068800315
:1008D000F6D4287880073BD5042E11D00C2E04D1F5
:1008E000022F01E036E1A1E00AD0E8680028206884
:1008F0001ED040F480702060FFF76EFD07460CE0CC
:10090000206840050CD5E8680028C1D008E000BF89
:10091000FFF762FDC01B022893D820684005F7D579
:100920006068297C20F0F85040EA016060600FE0C8
:1009300020F480702060FFF74FFD074605E000BF00
:10094000FFF74AFDC01B022870D820684005F7D485
:100950002878000729D568690028D4F8940012D0B7
:1009600040F00100C4F89400FFF736FD074604E0AC
:10097000FFF732FDC01B022858D8D4F89400800736
:10098000F6D512E0EDE020F00100C4F89400FFF786
:1009900023FD074605E000BFFFF71EFDC01B022830
:1009A00044D8D4F894008007F6D42878400768D556
:1009B000A06D0027C00008D4A06D40F08050A06555
:1009C000A06D012700F08050009052480168C905D1
:1009D00012D40168814641F480710160FFF7FCFC8C
:1009E000804605E0FFF7F8FCA0EB080002281DD8C0
:1009F000D9F80000C005F5D5A868012817D005284A
:100A0000D4F8900018D020F00100C4F89000D4F879
:100A1000900020F0040000BFC4F89000A86841F2E4
:100A20008839D0B1FFF7D8FC804611E06BE0D4F8EC
:100A3000900040F00100EFE740F00400C4F890009F
:100A4000F5E700BFFFF7C8FCA0EB080149455AD8FD
:100A5000D4F890008007F5D50EE0FFF7BDFC804686
:100A600006E000BFFFF7B8FCA0EB0801494570D8CD
:100A7000D4F890008007F5D41FB1A06D20F080500D
:100A8000A065A86AF0B30C2E6BD00228206820F075
:100A90008070206004D0206810F0205F47D04AE0CA
:100AA000FFF79AFC064604E0FFF796FC801B02283D
:100AB0004FD820688001F7D4286BE96A000110380C
:100AC0000843696BAA6B0902120941EA42410843D3
:100AD000A98F114A490802EB4151084395F840108B
:100AE0004908120102EB41610843E060206840F0D0
:100AF00080702060E06840F08070E060FFF76CFC80
:100B0000054610E02BE024E0001002407C150008B0
:100B100004000020007000400000E0FFFFF75CFCD4
:100B2000401B022815D820688001F7D517E0E0683F
:100B300020F00300E060E0680B490840E060FFF748
:100B40004BFC054608E000BFFFF746FC401B0228AF
:100B500002D90320BDE8F88320688001F4D4002086
:100B6000F8E70120F6E70000FFFFEEFE10B5401E9B
:100B7000B0F1807F01D3012010BD4FF0E02460610F
:100B80000F21601700F0FCF90020A0610720206110
:100B9000002010BD70B590F83C20012A24D001241B
:100BA00080F83C40022280F83D2002685368956836
:100BB0000E4EB24202D00E4EB24203D123F4700662
:100BC0004B68334323F070060B688968334325F084
:100BD0008005294353600268916080F83D40002100
:100BE00080F83C10084670BD022070BD002C01400A
:100BF0000034014010B5040003D094F83D0010B15A
:100C000007E0012010BD002084F83C00204600F0E1
:100C10000DF8022084F83D00211D206800F04CFAF8
:100C2000012084F83D00002010BD000010B586B002
:100C3000044614216846FFF7CAFA12492068884220
:100C40001DD11148816D41F002018165816D01F076
:100C500002010591C16C41F00401C164C06C002126
:100C600000F0040005904FF4807000900220CDE960
:100C70000101CDE9031069460448FFF7C7FA06B041
:100C800010BD0000000400400010024000080048B1
:100C900070B5044690F83C00012817D0012584F86F
:100CA0003C50022084F83D0020688268324E324079
:100CB00022F47F4282600868502839D00DDC202859
:100CC00055D005DC98B3102843D150E0022070BD08
:100CD00030284CD040283CD141E0602830D07028EA
:100CE0000CD0B0F5805F03D0B0F5005F31D112E0D9
:100CF00020688168204A7032114016E0CB68D1E943
:100D00000121206800F045FA21688868304040F0F1
:100D1000770088601DE0CB68D1E90121206800F0F0
:100D200038FA2068816841F48041816011E01EE05A
:100D3000CA684968206800F0C7FB5021206806E0B7
:100D4000CA684968206800F0D0FB6021206800F084
:100D50002AFA84F83D50002084F83C0070BDCA682F
:100D60004968206800F0B0FB40212068EFE7226866
:100D700001461046EBE7000088FFFEFF10B586B085
:100D8000044614216846FFF722FA0D49206888427C
:100D900014D10C48C16C41F00201C164C06C002147
:100DA00000F002000590302000900220CDE9010102
:100DB000CDE9031069460448FFF728FA06B010BDD4
:100DC00000040040001002400004004870B50446D2
:100DD00090F83C0001280ED0012584F83C500220F8
:100DE00084F83D000C2A19D007DC5AB1042A0DD032
:100DF000082A1ED10EE0022070BD102A12D0142A3B
:100E000017D113E0206800F0D7F912E0206800F055
:100E100021FA0EE0206800F065FA0AE0206800F090
:100E2000A9FA06E0206800F0DFFA02E0206800F08E
:100E300013FB84F83D50002084F83C0070BD10B5D1
:100E4000040003D094F83D0010B107E0012010BD6C
:100E5000002084F83C00204600F00CF8022084F8C2
:100E60003D00211D206800F027F9012084F83D0095
:100E7000002010BD7047000010B504460068012234
:100E800000F07AF91248216881420BD01148814262
:100E900008D01148814205D01048814202D0104844
:100EA000814203D1486C40F4004048642068826865
:100EB0000C490A40062A08D082680A40B2F5803FF1
:100EC00003D0016841F001010160002010BD000065
:100ED000002C01400034014000400140004401402A
:100EE0000048014007000100FEE7000010B58EB089
:100EF00000240794089409940A940B940C941C21E0
:100F000068460D94FFF763F91B481A4901604FF4D6
:100F10007A51C0E901140911C0E903148461FFF793
:100F200069FE4FF48050079007A91348FFF7B0FE01
:100F30001148FFF784FF0B940BA90F480D94FFF79E
:100F400029FE302000904FF4C870CDE90104002242
:100F5000694609480494FFF739FF4FF4487001903F
:100F6000042269460448FFF731FF0348FFF706FFF4
:100F70000EB010BD0004004008000020FEE77047DE
:100F80000907090E002806DA00F00F0000F1E02042
:100F900080F8141D704700F1E02080F800147047BD
:100FA00070470000F8B51C4D06460024A86DC0002F
:100FB00002D5FFF7C3FA0DE0A86D40F08050A86598
:100FC000A86D00F080500090FFF7B8FAA96D21F0ED
:100FD0008051A965B0F5007F04D0802E07D94FF06D
:100FE00003040AE0802E08D9A02E01D804E001D124
:100FF000022402E0702E00D101240848016821F08B
:10100000070121430160006800F00700A04201D001
:101010000120F8BD0020F8BD001002400020024071
:101020007047FFF7DFB910B596B044216846FFF767
:10103000CEF8142111A8FFF7CAF810200090002460
:101040000120CDE90604602008900A946846FFF765
:101050005BFB0F20CDE9110413941494002111A817
:101060001594FFF773FA4FF40070FFF733FA16B0D8
:1010700010BD00000D48016841F4700101600C488A
:10108000016841F001010160002181600268094BA3
:101090001A4002608214C260026822F48022026058
:1010A00081610249C00380390860704788ED00E023
:1010B00000100240FFFFF6EA2DE9F0470268264BD8
:1010C000264D274E274F284C4FF0804A984209D092
:1010D000504507D0A84205D0B04203D0B84201D055
:1010E000A04204D122F0700C4A6842EA0C02DFF8F8
:1010F0007CC0DFF87C80DFF87C9098420FD05045B0
:101100000DD0A8420BD0B04209D0B84207D0A042BF
:1011100005D0604503D0404501D0484503D122F4B5
:101120004075CA682A434D6922F080022A43026052
:101130008A68C2620A688262984207D0A04205D0DB
:10114000604503D0404501D0484501D1096901639C
:1011500001214161BDE8F087002C014000040040FE
:1011600000080040000C00400034014000400140F5
:10117000004401400048014010B501F01F03012167
:10118000046A99408C430462016A9A4011430162E7
:1011900010BD10B5846842EA032224F47F440A4358
:1011A0002243826010BD826822F070020A4342F03E
:1011B00007018160704700002DE9F043026A22F0C8
:1011C00001020262056A436882691C4C25F002052F
:1011D00022400C6822F0030214438A68194E2A4305
:1011E000174D194FDFF864C0DFF86490A84207D0AC
:1011F000B04205D0B84203D0604501D0484506D181
:1012000022F00808CA6842EA080222F00402A84252
:1012100007D0B04205D0B84203D0604501D0484560
:1012200005D14D6923F440731D438B692B43436003
:101230008461496841630262BDE8F0838FFFFEFF6D
:10124000002C0140003401400040014000440140B6
:1012500000480140F0B5026A22F010020262056AFD
:1012600042688369194C1B4E23400C6823F4407379
:1012700043EA042425F020038D6843EA0513144D46
:10128000A84201D0B04206D1CF6823F0800343EAE0
:10129000071323F04003A8420AD0B04208D00E4DF5
:1012A000A84205D00D4DA84202D00D4DA84207D14D
:1012B0004D6922F4406242EA85028D6942EA850264
:1012C00042608461496881630362F0BDFF8FFFFE65
:1012D000002C014000340140004001400044014026
:1012E00000480140F0B5026A22F480720262056A89
:1012F0004368C269194C1B4E22400C6822F003025D
:10130000144325F400728D6842EA0522144DA84268
:1013100001D0B04206D1CF6822F4006242EA07222F
:1013200022F48062A8420AD0B04208D00E4DA842F2
:1013300005D00E4DA84202D00D4DA84207D14D69EF
:1013400023F4405343EA05138D6943EA05134360D0
:10135000C4614968C1630262F0BD00008FFFFEFFF7
:10136000002C014000340140004001400044014095
:101370000048014030B5026A22F480520262046AD9
:101380004268C369124D24F400542B400D6823F4C5
:10139000407343EA05238D6844EA05340D4DA842A5
:1013A0000BD00D4DA84208D00C4DA84205D00C4DD5
:1013B000A84202D00B4DA84204D14D6922F48042CC
:1013C00042EA85124260C36149680164046230BD2B
:1013D000FF8FFFFE002C014000340140004001401F
:1013E000004401400048014030B5026A22F48032D6
:1013F0000262046A4268436D114D2B400D681D4323
:1014000024F400330C8943EA04430E4CA0420BD071
:101410000D4CA04208D00D4CA04205D00C4CA0426F
:1014200002D00C4CA04204D14C6922F4803242EA32
:1014300004224260456549688165036230BD000051
:101440008FFFFEFF002C01400034014000400140AE
:10145000004401400048014030B5026A22F4801285
:101460000262046A4268436D114D24F400142B405B
:101470000D6843EA05230D8944EA05540D4DA84241
:101480000BD00D4DA84208D00C4DA84205D00C4DF4
:10149000A84202D00B4DA84204D14D6922F480220B
:1014A00042EA8522426043654968C165046230BDF5
:1014B000FF8FFFFE002C014000340140004001403E
:1014C000004401400048014010B5036A046A24F05A
:1014D00001040462846924F0F00444EA021423F055
:1014E0000A020A438461026210BD10B5036A23F048
:1014F000100303628369046A23F4704343EA0232EF
:1015000024F0A00343EA01118261016210BDFEE7ED
:1015100002E008C8121F08C1002AFAD170477047BC
:10152000002001E001C1121F002AFBD1704700001A
:1015300008B5FEF75FFFFFF776FD0E48C16C41F07E
:101540000401C164C16C01F004010091C16C41F05F
:101550000201C164C06C00F002000090FFF7C6FCFD
:1015600000210548FFF788FC04210348FFF784FCAD
:10157000F6E7000000100240080000200000000014
:10158000000000000102030406070809A08601000C
:10159000400D0300801A060000350C0040420F0089
:1015A00080841E0000093D0000127A000024F4002F
:1015B00000366E010048E801006CDC02DC15000812
:1015C000000000200800000010150008E4150008C5
:1015D0000800002040040000201500080000000062
:0415E00000093D00C1
:040000050800018965
:00000001FF
